{
  "contractName": "Faucet",
  "abi": [
    {
      "inputs": [
        {
          "internalType": "uint256",
          "name": "",
          "type": "uint256"
        }
      ],
      "name": "funders",
      "outputs": [
        {
          "internalType": "address",
          "name": "",
          "type": "address"
        }
      ],
      "stateMutability": "view",
      "type": "function",
      "constant": true
    },
    {
      "stateMutability": "payable",
      "type": "receive",
      "payable": true
    },
    {
      "inputs": [],
      "name": "addFunds",
      "outputs": [],
      "stateMutability": "payable",
      "type": "function",
      "payable": true
    },
    {
      "inputs": [
        {
          "internalType": "uint256",
          "name": "withdrawAmount",
          "type": "uint256"
        }
      ],
      "name": "withdraw",
      "outputs": [],
      "stateMutability": "nonpayable",
      "type": "function"
    },
    {
      "inputs": [],
      "name": "getAllFunders",
      "outputs": [
        {
          "internalType": "address[]",
          "name": "",
          "type": "address[]"
        }
      ],
      "stateMutability": "view",
      "type": "function",
      "constant": true
    },
    {
      "inputs": [
        {
          "internalType": "uint256",
          "name": "index",
          "type": "uint256"
        }
      ],
      "name": "getFunderAtIndex",
      "outputs": [
        {
          "internalType": "address",
          "name": "",
          "type": "address"
        }
      ],
      "stateMutability": "view",
      "type": "function",
      "constant": true
    }
  ],
  "bytecode": "0x608060405234801561001057600080fd5b506104f8806100206000396000f3fe60806040526004361061004e5760003560e01c80632e1a7d4d1461005a5780636fbbb55d14610083578063a26759cb146100ae578063c218deca146100b8578063dc0d3dff146100f557610055565b3661005557005b600080fd5b34801561006657600080fd5b50610081600480360381019061007c919061032a565b610132565b005b34801561008f57600080fd5b5061009861018d565b6040516100a59190610447565b60405180910390f35b6100b661021b565b005b3480156100c457600080fd5b506100df60048036038101906100da919061032a565b610280565b6040516100ec9190610478565b60405180910390f35b34801561010157600080fd5b5061011c6004803603810190610117919061032a565b6102b0565b6040516101299190610478565b60405180910390f35b670de0b6b3a764000081101561018a573373ffffffffffffffffffffffffffffffffffffffff166108fc829081150290604051600060405180830381858888f19350505050158015610188573d6000803e3d6000fd5b505b50565b6060600080548060200260200160405190810160405280929190818152602001828054801561021157602002820191906000526020600020905b8160009054906101000a900473ffffffffffffffffffffffffffffffffffffffff1673ffffffffffffffffffffffffffffffffffffffff16815260200190600101908083116101c7575b5050505050905090565b6000339080600181540180825580915050600190039060005260206000200160009091909190916101000a81548173ffffffffffffffffffffffffffffffffffffffff021916908373ffffffffffffffffffffffffffffffffffffffff160217905550565b60008061028b61018d565b90508083815181106102a05761029f610493565b5b6020026020010151915050919050565b600081815481106102c057600080fd5b906000526020600020016000915054906101000a900473ffffffffffffffffffffffffffffffffffffffff1681565b600080fd5b6000819050919050565b610307816102f4565b811461031257600080fd5b50565b600081359050610324816102fe565b92915050565b6000602082840312156103405761033f6102ef565b5b600061034e84828501610315565b91505092915050565b600081519050919050565b600082825260208201905092915050565b6000819050602082019050919050565b600073ffffffffffffffffffffffffffffffffffffffff82169050919050565b60006103ae82610383565b9050919050565b6103be816103a3565b82525050565b60006103d083836103b5565b60208301905092915050565b6000602082019050919050565b60006103f482610357565b6103fe8185610362565b935061040983610373565b8060005b8381101561043a57815161042188826103c4565b975061042c836103dc565b92505060018101905061040d565b5085935050505092915050565b6000602082019050818103600083015261046181846103e9565b905092915050565b610472816103a3565b82525050565b600060208201905061048d6000830184610469565b92915050565b7f4e487b7100000000000000000000000000000000000000000000000000000000600052603260045260246000fdfea26469706673582212203ca1a5adbe799773ea48c3b60f9ab77197aaec344793dc5f85b69e3fa68205ae64736f6c634300080e0033",
  "immutableReferences": {},
  "source": "// SPDX-License-Identifier: MIT\npragma solidity >=0.4.22 <0.9.0;\n\ncontract Faucet {\n\n    address[] public funders;\n\n    receive() external payable {}\n\n    function addFunds() external payable {\n        funders.push(msg.sender);\n    }\n\n    function withdraw(uint withdrawAmount) external {\n        if (withdrawAmount < 1000000000000000000) {\n            payable(msg.sender).transfer(withdrawAmount);\n        }\n    }\n\n    function getAllFunders() public view returns (address[] memory) {\n        return funders;\n    }\n\n    function getFunderAtIndex(uint index) external view returns (address) {\n        address[] memory _funders = getAllFunders();\n        return _funders[index];\n    }\n}",
  "sourcePath": "/Users/janrock/Projects/cbdcp/frontend/faucet/contracts/Faucet.sol",
  "compiler": {
    "name": "solc",
    "version": "0.8.14+commit.80d49f37.Emscripten.clang"
  },
  "schemaVersion": "3.4.7",
  "updatedAt": "2022-06-20T16:00:16.708Z",
  "networkType": "ethereum",
  "devdoc": {
    "kind": "dev",
    "methods": {},
    "version": 1
  },
  "userdoc": {
    "kind": "user",
    "methods": {},
    "version": 1
  }
}